{
  "contractName": "CaseReg",
  "abi": [
    {
      "constant": true,
      "inputs": [],
      "name": "Pgno",
      "outputs": [
        {
          "name": "",
          "type": "uint256"
        }
      ],
      "payable": false,
      "stateMutability": "view",
      "type": "function"
    },
    {
      "constant": true,
      "inputs": [
        {
          "name": "",
          "type": "uint256"
        }
      ],
      "name": "MPetition",
      "outputs": [
        {
          "name": "Prathy",
          "type": "string"
        },
        {
          "name": "Vaadi",
          "type": "string"
        },
        {
          "name": "Tittle",
          "type": "string"
        },
        {
          "name": "Casetype",
          "type": "uint8"
        },
        {
          "name": "Image",
          "type": "string"
        },
        {
          "name": "WriteUp",
          "type": "string"
        }
      ],
      "payable": false,
      "stateMutability": "view",
      "type": "function"
    },
    {
      "constant": false,
      "inputs": [
        {
          "name": "_Prathy",
          "type": "string"
        },
        {
          "name": "_Vaadi",
          "type": "string"
        },
        {
          "name": "_Tittle",
          "type": "string"
        },
        {
          "name": "_Casetyp",
          "type": "uint8"
        },
        {
          "name": "_image",
          "type": "string"
        },
        {
          "name": "_WriteUp",
          "type": "string"
        }
      ],
      "name": "AddPetition",
      "outputs": [],
      "payable": false,
      "stateMutability": "nonpayable",
      "type": "function"
    }
  ],
  "bytecode": "0x60806040526000805534801561001457600080fd5b50610b2d806100246000396000f3fe608060405234801561001057600080fd5b50600436106100415760003560e01c8063d9d336a614610046578063e46e450b1461036a578063ff234f0814610388575b600080fd5b610368600480360360c081101561005c57600080fd5b810190808035906020019064010000000081111561007957600080fd5b82018360208201111561008b57600080fd5b803590602001918460018302840111640100000000831117156100ad57600080fd5b91908080601f016020809104026020016040519081016040528093929190818152602001838380828437600081840152601f19601f8201169050808301925050505050505091929192908035906020019064010000000081111561011057600080fd5b82018360208201111561012257600080fd5b8035906020019184600183028401116401000000008311171561014457600080fd5b91908080601f016020809104026020016040519081016040528093929190818152602001838380828437600081840152601f19601f820116905080830192505050505050509192919290803590602001906401000000008111156101a757600080fd5b8201836020820111156101b957600080fd5b803590602001918460018302840111640100000000831117156101db57600080fd5b91908080601f016020809104026020016040519081016040528093929190818152602001838380828437600081840152601f19601f820116905080830192505050505050509192919290803560ff1690602001909291908035906020019064010000000081111561024b57600080fd5b82018360208201111561025d57600080fd5b8035906020019184600183028401116401000000008311171561027f57600080fd5b91908080601f016020809104026020016040519081016040528093929190818152602001838380828437600081840152601f19601f820116905080830192505050505050509192919290803590602001906401000000008111156102e257600080fd5b8201836020820111156102f457600080fd5b8035906020019184600183028401116401000000008311171561031657600080fd5b91908080601f016020809104026020016040519081016040528093929190818152602001838380828437600081840152601f19601f8201169050808301925050505050505091929192905050506105f4565b005b610372610715565b6040518082815260200191505060405180910390f35b6103b46004803603602081101561039e57600080fd5b810190808035906020019092919050505061071b565b604051808060200180602001806020018760038111156103d057fe5b60ff168152602001806020018060200186810386528c818151815260200191508051906020019080838360005b838110156104185780820151818401526020810190506103fd565b50505050905090810190601f1680156104455780820380516001836020036101000a031916815260200191505b5086810385528b818151815260200191508051906020019080838360005b8381101561047e578082015181840152602081019050610463565b50505050905090810190601f1680156104ab5780820380516001836020036101000a031916815260200191505b5086810384528a818151815260200191508051906020019080838360005b838110156104e45780820151818401526020810190506104c9565b50505050905090810190601f1680156105115780820380516001836020036101000a031916815260200191505b50868103835288818151815260200191508051906020019080838360005b8381101561054a57808201518184015260208101905061052f565b50505050905090810190601f1680156105775780820380516001836020036101000a031916815260200191505b50868103825287818151815260200191508051906020019080838360005b838110156105b0578082015181840152602081019050610595565b50505050905090810190601f1680156105dd5780820380516001836020036101000a031916815260200191505b509b50505050505050505050505060405180910390f35b600160008082825401925050819055506040518060c0016040528087815260200186815260200185815260200184600381111561062d57fe5b8152602001838152602001828152506001600080548152602001908152602001600020600082015181600001908051906020019061066c929190610a5c565b506020820151816001019080519060200190610689929190610a5c565b5060408201518160020190805190602001906106a6929190610a5c565b5060608201518160030160006101000a81548160ff021916908360038111156106cb57fe5b021790555060808201518160040190805190602001906106ec929190610a5c565b5060a0820151816005019080519060200190610709929190610a5c565b50905050505050505050565b60005481565b6001602052806000526040600020600091509050806000018054600181600116156101000203166002900480601f0160208091040260200160405190810160405280929190818152602001828054600181600116156101000203166002900480156107c75780601f1061079c576101008083540402835291602001916107c7565b820191906000526020600020905b8154815290600101906020018083116107aa57829003601f168201915b505050505090806001018054600181600116156101000203166002900480601f0160208091040260200160405190810160405280929190818152602001828054600181600116156101000203166002900480156108655780601f1061083a57610100808354040283529160200191610865565b820191906000526020600020905b81548152906001019060200180831161084857829003601f168201915b505050505090806002018054600181600116156101000203166002900480601f0160208091040260200160405190810160405280929190818152602001828054600181600116156101000203166002900480156109035780601f106108d857610100808354040283529160200191610903565b820191906000526020600020905b8154815290600101906020018083116108e657829003601f168201915b5050505050908060030160009054906101000a900460ff1690806004018054600181600116156101000203166002900480601f0160208091040260200160405190810160405280929190818152602001828054600181600116156101000203166002900480156109b45780601f10610989576101008083540402835291602001916109b4565b820191906000526020600020905b81548152906001019060200180831161099757829003601f168201915b505050505090806005018054600181600116156101000203166002900480601f016020809104026020016040519081016040528092919081815260200182805460018160011615610100020316600290048015610a525780601f10610a2757610100808354040283529160200191610a52565b820191906000526020600020905b815481529060010190602001808311610a3557829003601f168201915b5050505050905086565b828054600181600116156101000203166002900490600052602060002090601f016020900481019282601f10610a9d57805160ff1916838001178555610acb565b82800160010185558215610acb579182015b82811115610aca578251825591602001919060010190610aaf565b5b509050610ad89190610adc565b5090565b610afe91905b80821115610afa576000816000905550600101610ae2565b5090565b9056fea165627a7a723058206dc3dafa1801aa13175b9ae45a60827ac3f4706a47c88884becdf78415fda2070029",
  "source": "pragma solidity ^0.5.0;\n\ncontract CaseReg{\n    \n    enum CType {Criminal,Civil,Narcotic,Terririst}\n     uint public Pgno = 0 ; // it will increase while adding each case\n     \n    struct Petition {\n        string Prathy; //Accuse\n        string Vaadi; //mattavan\n        string Tittle; //vishayam   \n        CType Casetype; // as 0-3 based on above enum\n        string Image; //ipfs image hash\n        string WriteUp; //blaa blaaa blaaa\n    }\n    \n    mapping(uint=>Petition) public MPetition; //going to map the petition struct via page no\n    \n    function AddPetition (string memory _Prathy,string memory _Vaadi,string memory _Tittle,CType _Casetyp,string memory _image,string memory _WriteUp) public {\n     Pgno +=1; //page no increament\n     MPetition[Pgno]= Petition(_Prathy,_Vaadi,_Tittle,_Casetyp,_image,_WriteUp); //pushing inputs to the structure\n    }\n    \n    \n    \n}",
  "sourcePath": "/home/jothish/MyProject/Blockchain/contracts/CaseReg.sol",
  "compiler": {
    "name": "solc",
    "version": "0.5.8+commit.23d335f2.Emscripten.clang"
  },
  "schemaVersion": "3.0.11",
  "updatedAt": "2019-07-27T07:55:05.186Z",
  "devdoc": {
    "methods": {}
  },
  "userdoc": {
    "methods": {}
  }
}