{
  "contractName": "CaseReg",
  "abi": [
    {
      "constant": true,
      "inputs": [],
      "name": "Pgno",
      "outputs": [
        {
          "name": "",
          "type": "uint256"
        }
      ],
      "payable": false,
      "stateMutability": "view",
      "type": "function"
    },
    {
      "constant": true,
      "inputs": [
        {
          "name": "",
          "type": "uint256"
        }
      ],
      "name": "MPetition",
      "outputs": [
        {
          "name": "Prathy",
          "type": "string"
        },
        {
          "name": "Vaadi",
          "type": "string"
        },
        {
          "name": "Tittle",
          "type": "string"
        },
        {
          "name": "Casetype",
          "type": "uint8"
        },
        {
          "name": "Image",
          "type": "string"
        },
        {
          "name": "WriteUp",
          "type": "string"
        }
      ],
      "payable": false,
      "stateMutability": "view",
      "type": "function"
    },
    {
      "constant": false,
      "inputs": [
        {
          "name": "_Prathy",
          "type": "string"
        },
        {
          "name": "_Vaadi",
          "type": "string"
        },
        {
          "name": "_Tittle",
          "type": "string"
        },
        {
          "name": "_Casetyp",
          "type": "uint8"
        },
        {
          "name": "_image",
          "type": "string"
        },
        {
          "name": "_WriteUp",
          "type": "string"
        }
      ],
      "name": "AddPetition",
      "outputs": [],
      "payable": false,
      "stateMutability": "nonpayable",
      "type": "function"
    }
  ],
  "bytecode": "0x60806040526000805534801561001457600080fd5b50610b6b806100246000396000f3fe608060405260043610610057576000357c0100000000000000000000000000000000000000000000000000000000900463ffffffff168063d9d336a61461005c578063e46e450b1461038d578063ff234f08146103b8575b600080fd5b34801561006857600080fd5b5061038b600480360360c081101561007f57600080fd5b810190808035906020019064010000000081111561009c57600080fd5b8201836020820111156100ae57600080fd5b803590602001918460018302840111640100000000831117156100d057600080fd5b91908080601f016020809104026020016040519081016040528093929190818152602001838380828437600081840152601f19601f8201169050808301925050505050505091929192908035906020019064010000000081111561013357600080fd5b82018360208201111561014557600080fd5b8035906020019184600183028401116401000000008311171561016757600080fd5b91908080601f016020809104026020016040519081016040528093929190818152602001838380828437600081840152601f19601f820116905080830192505050505050509192919290803590602001906401000000008111156101ca57600080fd5b8201836020820111156101dc57600080fd5b803590602001918460018302840111640100000000831117156101fe57600080fd5b91908080601f016020809104026020016040519081016040528093929190818152602001838380828437600081840152601f19601f820116905080830192505050505050509192919290803560ff1690602001909291908035906020019064010000000081111561026e57600080fd5b82018360208201111561028057600080fd5b803590602001918460018302840111640100000000831117156102a257600080fd5b91908080601f016020809104026020016040519081016040528093929190818152602001838380828437600081840152601f19601f8201169050808301925050505050505091929192908035906020019064010000000081111561030557600080fd5b82018360208201111561031757600080fd5b8035906020019184600183028401116401000000008311171561033957600080fd5b91908080601f016020809104026020016040519081016040528093929190818152602001838380828437600081840152601f19601f820116905080830192505050505050509192919290505050610631565b005b34801561039957600080fd5b506103a2610753565b6040518082815260200191505060405180910390f35b3480156103c457600080fd5b506103f1600480360360208110156103db57600080fd5b8101908080359060200190929190505050610759565b6040518080602001806020018060200187600381111561040d57fe5b60ff168152602001806020018060200186810386528c818151815260200191508051906020019080838360005b8381101561045557808201518184015260208101905061043a565b50505050905090810190601f1680156104825780820380516001836020036101000a031916815260200191505b5086810385528b818151815260200191508051906020019080838360005b838110156104bb5780820151818401526020810190506104a0565b50505050905090810190601f1680156104e85780820380516001836020036101000a031916815260200191505b5086810384528a818151815260200191508051906020019080838360005b83811015610521578082015181840152602081019050610506565b50505050905090810190601f16801561054e5780820380516001836020036101000a031916815260200191505b50868103835288818151815260200191508051906020019080838360005b8381101561058757808201518184015260208101905061056c565b50505050905090810190601f1680156105b45780820380516001836020036101000a031916815260200191505b50868103825287818151815260200191508051906020019080838360005b838110156105ed5780820151818401526020810190506105d2565b50505050905090810190601f16801561061a5780820380516001836020036101000a031916815260200191505b509b50505050505050505050505060405180910390f35b6001600080828254019250508190555060c06040519081016040528087815260200186815260200185815260200184600381111561066b57fe5b815260200183815260200182815250600160008054815260200190815260200160002060008201518160000190805190602001906106aa929190610a9a565b5060208201518160010190805190602001906106c7929190610a9a565b5060408201518160020190805190602001906106e4929190610a9a565b5060608201518160030160006101000a81548160ff0219169083600381111561070957fe5b0217905550608082015181600401908051906020019061072a929190610a9a565b5060a0820151816005019080519060200190610747929190610a9a565b50905050505050505050565b60005481565b6001602052806000526040600020600091509050806000018054600181600116156101000203166002900480601f0160208091040260200160405190810160405280929190818152602001828054600181600116156101000203166002900480156108055780601f106107da57610100808354040283529160200191610805565b820191906000526020600020905b8154815290600101906020018083116107e857829003601f168201915b505050505090806001018054600181600116156101000203166002900480601f0160208091040260200160405190810160405280929190818152602001828054600181600116156101000203166002900480156108a35780601f10610878576101008083540402835291602001916108a3565b820191906000526020600020905b81548152906001019060200180831161088657829003601f168201915b505050505090806002018054600181600116156101000203166002900480601f0160208091040260200160405190810160405280929190818152602001828054600181600116156101000203166002900480156109415780601f1061091657610100808354040283529160200191610941565b820191906000526020600020905b81548152906001019060200180831161092457829003601f168201915b5050505050908060030160009054906101000a900460ff1690806004018054600181600116156101000203166002900480601f0160208091040260200160405190810160405280929190818152602001828054600181600116156101000203166002900480156109f25780601f106109c7576101008083540402835291602001916109f2565b820191906000526020600020905b8154815290600101906020018083116109d557829003601f168201915b505050505090806005018054600181600116156101000203166002900480601f016020809104026020016040519081016040528092919081815260200182805460018160011615610100020316600290048015610a905780601f10610a6557610100808354040283529160200191610a90565b820191906000526020600020905b815481529060010190602001808311610a7357829003601f168201915b5050505050905086565b828054600181600116156101000203166002900490600052602060002090601f016020900481019282601f10610adb57805160ff1916838001178555610b09565b82800160010185558215610b09579182015b82811115610b08578251825591602001919060010190610aed565b5b509050610b169190610b1a565b5090565b610b3c91905b80821115610b38576000816000905550600101610b20565b5090565b9056fea165627a7a72305820452a8a29055c821aeb8acc491849bab1f87af96fbc0f1793fb334d9d6b8ffa710029",
  "source": "pragma solidity ^0.5.0;\n\ncontract CaseReg{\n    \n    enum CType {Criminal,Civil,Narcotic,Terririst}\n     uint public Pgno = 0 ; // it will increase while adding each case\n     \n    struct Petition {\n        string Prathy; //Accuse\n        string Vaadi; //mattavan\n        string Tittle; //vishayam   \n        CType Casetype; // as 0-3 based on above enum\n        string Image; //ipfs image hash\n        string WriteUp; //blaa blaaa blaaa\n    }\n    \n    mapping(uint=>Petition) public MPetition; //going to map the petition struct via page no\n    \n    function AddPetition (string memory _Prathy,string memory _Vaadi,string memory _Tittle,CType _Casetyp,string memory _image,string memory _WriteUp) public {\n     Pgno +=1; //page no increament\n     MPetition[Pgno]= Petition(_Prathy,_Vaadi,_Tittle,_Casetyp,_image,_WriteUp); //pushing inputs to the structure\n    }\n    \n    \n    \n}",
  "sourcePath": "/home/jothish/MyProject/Blockchain/contracts/CaseReg.sol",
  "compiler": {
    "name": "solc",
    "version": "0.5.0+commit.1d4f565a.Emscripten.clang"
  },
  "schemaVersion": "3.0.11",
  "updatedAt": "2019-07-02T14:31:56.398Z",
  "devdoc": {
    "methods": {}
  },
  "userdoc": {
    "methods": {}
  }
}