{
  "contractName": "CaseReg",
  "abi": [
    {
      "constant": true,
      "inputs": [],
      "name": "Pgno",
      "outputs": [
        {
          "name": "",
          "type": "uint256"
        }
      ],
      "payable": false,
      "stateMutability": "view",
      "type": "function"
    },
    {
      "constant": true,
      "inputs": [
        {
          "name": "",
          "type": "uint256"
        }
      ],
      "name": "MPetition",
      "outputs": [
        {
          "name": "Prathy",
          "type": "string"
        },
        {
          "name": "Vaadi",
          "type": "string"
        },
        {
          "name": "Tittle",
          "type": "string"
        },
        {
          "name": "Casetype",
          "type": "uint8"
        },
        {
          "name": "WriteUp",
          "type": "string"
        }
      ],
      "payable": false,
      "stateMutability": "view",
      "type": "function"
    },
    {
      "constant": false,
      "inputs": [
        {
          "name": "_Prathy",
          "type": "string"
        },
        {
          "name": "_Vaadi",
          "type": "string"
        },
        {
          "name": "_Tittle",
          "type": "string"
        },
        {
          "name": "_Casetyp",
          "type": "uint8"
        },
        {
          "name": "_WriteUp",
          "type": "string"
        }
      ],
      "name": "AddPetition",
      "outputs": [],
      "payable": false,
      "stateMutability": "nonpayable",
      "type": "function"
    },
    {
      "constant": true,
      "inputs": [],
      "name": "getPg",
      "outputs": [
        {
          "name": "_Pgno",
          "type": "uint256"
        }
      ],
      "payable": false,
      "stateMutability": "view",
      "type": "function"
    }
  ],
  "bytecode": "0x60806040526000805534801561001457600080fd5b5061099e806100246000396000f3fe608060405234801561001057600080fd5b506004361061004c5760003560e01c806309637e9814610051578063168664ee1461006f578063e46e450b146102fc578063ff234f081461031a575b600080fd5b61005961051a565b6040518082815260200191505060405180910390f35b6102fa600480360360a081101561008557600080fd5b81019080803590602001906401000000008111156100a257600080fd5b8201836020820111156100b457600080fd5b803590602001918460018302840111640100000000831117156100d657600080fd5b91908080601f016020809104026020016040519081016040528093929190818152602001838380828437600081840152601f19601f8201169050808301925050505050505091929192908035906020019064010000000081111561013957600080fd5b82018360208201111561014b57600080fd5b8035906020019184600183028401116401000000008311171561016d57600080fd5b91908080601f016020809104026020016040519081016040528093929190818152602001838380828437600081840152601f19601f820116905080830192505050505050509192919290803590602001906401000000008111156101d057600080fd5b8201836020820111156101e257600080fd5b8035906020019184600183028401116401000000008311171561020457600080fd5b91908080601f016020809104026020016040519081016040528093929190818152602001838380828437600081840152601f19601f820116905080830192505050505050509192919290803560ff1690602001909291908035906020019064010000000081111561027457600080fd5b82018360208201111561028657600080fd5b803590602001918460018302840111640100000000831117156102a857600080fd5b91908080601f016020809104026020016040519081016040528093929190818152602001838380828437600081840152601f19601f820116905080830192505050505050509192919290505050610526565b005b610304610624565b6040518082815260200191505060405180910390f35b6103466004803603602081101561033057600080fd5b810190808035906020019092919050505061062a565b6040518080602001806020018060200186600381111561036257fe5b60ff1681526020018060200185810385528a818151815260200191508051906020019080838360005b838110156103a657808201518184015260208101905061038b565b50505050905090810190601f1680156103d35780820380516001836020036101000a031916815260200191505b50858103845289818151815260200191508051906020019080838360005b8381101561040c5780820151818401526020810190506103f1565b50505050905090810190601f1680156104395780820380516001836020036101000a031916815260200191505b50858103835288818151815260200191508051906020019080838360005b83811015610472578082015181840152602081019050610457565b50505050905090810190601f16801561049f5780820380516001836020036101000a031916815260200191505b50858103825286818151815260200191508051906020019080838360005b838110156104d85780820151818401526020810190506104bd565b50505050905090810190601f1680156105055780820380516001836020036101000a031916815260200191505b50995050505050505050505060405180910390f35b60008054905080905090565b60008081548092919060010191905055506040518060a0016040528086815260200185815260200184815260200183600381111561056057fe5b815260200182815250600160008054815260200190815260200160002060008201518160000190805190602001906105999291906108cd565b5060208201518160010190805190602001906105b69291906108cd565b5060408201518160020190805190602001906105d39291906108cd565b5060608201518160030160006101000a81548160ff021916908360038111156105f857fe5b021790555060808201518160040190805190602001906106199291906108cd565b509050505050505050565b60005481565b6001602052806000526040600020600091509050806000018054600181600116156101000203166002900480601f0160208091040260200160405190810160405280929190818152602001828054600181600116156101000203166002900480156106d65780601f106106ab576101008083540402835291602001916106d6565b820191906000526020600020905b8154815290600101906020018083116106b957829003601f168201915b505050505090806001018054600181600116156101000203166002900480601f0160208091040260200160405190810160405280929190818152602001828054600181600116156101000203166002900480156107745780601f1061074957610100808354040283529160200191610774565b820191906000526020600020905b81548152906001019060200180831161075757829003601f168201915b505050505090806002018054600181600116156101000203166002900480601f0160208091040260200160405190810160405280929190818152602001828054600181600116156101000203166002900480156108125780601f106107e757610100808354040283529160200191610812565b820191906000526020600020905b8154815290600101906020018083116107f557829003601f168201915b5050505050908060030160009054906101000a900460ff1690806004018054600181600116156101000203166002900480601f0160208091040260200160405190810160405280929190818152602001828054600181600116156101000203166002900480156108c35780601f10610898576101008083540402835291602001916108c3565b820191906000526020600020905b8154815290600101906020018083116108a657829003601f168201915b5050505050905085565b828054600181600116156101000203166002900490600052602060002090601f016020900481019282601f1061090e57805160ff191683800117855561093c565b8280016001018555821561093c579182015b8281111561093b578251825591602001919060010190610920565b5b509050610949919061094d565b5090565b61096f91905b8082111561096b576000816000905550600101610953565b5090565b9056fea165627a7a72305820c1b0b2c78020187c00907847c3c79f47dda0788577ad9e8b8cb30a7df772919f0029",
  "source": "pragma solidity ^0.5.0;\n\ncontract CaseReg{\n    \n    enum CType {Criminal,Civil,Narcotic,Terririst}\n     uint public Pgno = 0; // it will increase while adding each case\n     \n    struct Petition {\n        string Prathy; //Accuse\n        string Vaadi; //mattavan\n        string Tittle; //vishayam   \n        CType Casetype; // as 0-3 based on above enum\n        //string Image; //ipfs image hash\n        string WriteUp; //blaa blaaa blaaa\n    }\n    \n    mapping(uint=>Petition) public MPetition; //going to map the petition struct via page no\n    \n    function AddPetition (string memory _Prathy,string memory _Vaadi,string memory _Tittle,CType _Casetyp,string memory _WriteUp) public {\n     Pgno++; //page no increament\n     MPetition[Pgno]= Petition(_Prathy,_Vaadi,_Tittle,_Casetyp,_WriteUp); //pushing inputs to the structure\n    }\n\n    function getPg() public view returns(uint _Pgno) {\n        return _Pgno = Pgno;\n        \n    } \n    \n    \n    \n}",
  "sourcePath": "/home/jothish/MyProject/Blockchain/contracts/CaseReg.sol",
  "compiler": {
    "name": "solc",
    "version": "0.5.8+commit.23d335f2.Emscripten.clang"
  },
  "schemaVersion": "3.0.11",
  "updatedAt": "2019-07-29T16:30:47.211Z",
  "devdoc": {
    "methods": {}
  },
  "userdoc": {
    "methods": {}
  }
}