{
  "contractName": "CrtPolice",
  "abi": [
    {
      "constant": false,
      "inputs": [
        {
          "name": "_password",
          "type": "string"
        }
      ],
      "name": "SetMP",
      "outputs": [],
      "payable": false,
      "stateMutability": "nonpayable",
      "type": "function"
    },
    {
      "constant": true,
      "inputs": [],
      "name": "GetMP",
      "outputs": [
        {
          "name": "_password",
          "type": "string"
        }
      ],
      "payable": false,
      "stateMutability": "view",
      "type": "function"
    },
    {
      "constant": false,
      "inputs": [
        {
          "name": "_Prathy",
          "type": "string"
        },
        {
          "name": "_Vaadi",
          "type": "string"
        },
        {
          "name": "_Tittle",
          "type": "string"
        },
        {
          "name": "_Casetyp",
          "type": "uint8"
        },
        {
          "name": "_image",
          "type": "string"
        },
        {
          "name": "_WriteUp",
          "type": "string"
        }
      ],
      "name": "AddPetition",
      "outputs": [],
      "payable": false,
      "stateMutability": "nonpayable",
      "type": "function"
    },
    {
      "constant": true,
      "inputs": [],
      "name": "Pgno",
      "outputs": [
        {
          "name": "",
          "type": "uint256"
        }
      ],
      "payable": false,
      "stateMutability": "view",
      "type": "function"
    },
    {
      "constant": true,
      "inputs": [
        {
          "name": "",
          "type": "uint256"
        }
      ],
      "name": "MPetition",
      "outputs": [
        {
          "name": "Prathy",
          "type": "string"
        },
        {
          "name": "Vaadi",
          "type": "string"
        },
        {
          "name": "Tittle",
          "type": "string"
        },
        {
          "name": "Casetype",
          "type": "uint8"
        },
        {
          "name": "Image",
          "type": "string"
        },
        {
          "name": "WriteUp",
          "type": "string"
        }
      ],
      "payable": false,
      "stateMutability": "view",
      "type": "function"
    },
    {
      "inputs": [],
      "payable": false,
      "stateMutability": "nonpayable",
      "type": "constructor"
    },
    {
      "constant": false,
      "inputs": [
        {
          "name": "_name",
          "type": "string"
        },
        {
          "name": "_StatAddr",
          "type": "address"
        },
        {
          "name": "_Password",
          "type": "string"
        }
      ],
      "name": "NewPoSt",
      "outputs": [],
      "payable": false,
      "stateMutability": "nonpayable",
      "type": "function"
    }
  ],
  "bytecode": "0x608060405260008055600060065534801561001957600080fd5b5033600260006101000a81548173ffffffffffffffffffffffffffffffffffffffff021916908373ffffffffffffffffffffffffffffffffffffffff16021790555033600460006101000a81548173ffffffffffffffffffffffffffffffffffffffff021916908373ffffffffffffffffffffffffffffffffffffffff16021790555061112b806100ab6000396000f3fe608060405234801561001057600080fd5b50600436106100625760003560e01c8063074c6637146100675780631fd46a7b146101d95780635b354a5914610294578063d9d336a614610317578063e46e450b1461063b578063ff234f0814610659575b600080fd5b6101d76004803603606081101561007d57600080fd5b810190808035906020019064010000000081111561009a57600080fd5b8201836020820111156100ac57600080fd5b803590602001918460018302840111640100000000831117156100ce57600080fd5b91908080601f016020809104026020016040519081016040528093929190818152602001838380828437600081840152601f19601f820116905080830192505050505050509192919290803573ffffffffffffffffffffffffffffffffffffffff1690602001909291908035906020019064010000000081111561015157600080fd5b82018360208201111561016357600080fd5b8035906020019184600183028401116401000000008311171561018557600080fd5b91908080601f016020809104026020016040519081016040528093929190818152602001838380828437600081840152601f19601f8201169050808301925050505050505091929192905050506108c5565b005b610292600480360360208110156101ef57600080fd5b810190808035906020019064010000000081111561020c57600080fd5b82018360208201111561021e57600080fd5b8035906020019184600183028401116401000000008311171561024057600080fd5b91908080601f016020809104026020016040519081016040528093929190818152602001838380828437600081840152601f19601f8201169050808301925050505050505091929192905050506109ff565b005b61029c610a73565b6040518080602001828103825283818151815260200191508051906020019080838360005b838110156102dc5780820151818401526020810190506102c1565b50505050905090810190601f1680156103095780820380516001836020036101000a031916815260200191505b509250505060405180910390f35b610639600480360360c081101561032d57600080fd5b810190808035906020019064010000000081111561034a57600080fd5b82018360208201111561035c57600080fd5b8035906020019184600183028401116401000000008311171561037e57600080fd5b91908080601f016020809104026020016040519081016040528093929190818152602001838380828437600081840152601f19601f820116905080830192505050505050509192919290803590602001906401000000008111156103e157600080fd5b8201836020820111156103f357600080fd5b8035906020019184600183028401116401000000008311171561041557600080fd5b91908080601f016020809104026020016040519081016040528093929190818152602001838380828437600081840152601f19601f8201169050808301925050505050505091929192908035906020019064010000000081111561047857600080fd5b82018360208201111561048a57600080fd5b803590602001918460018302840111640100000000831117156104ac57600080fd5b91908080601f016020809104026020016040519081016040528093929190818152602001838380828437600081840152601f19601f820116905080830192505050505050509192919290803560ff1690602001909291908035906020019064010000000081111561051c57600080fd5b82018360208201111561052e57600080fd5b8035906020019184600183028401116401000000008311171561055057600080fd5b91908080601f016020809104026020016040519081016040528093929190818152602001838380828437600081840152601f19601f820116905080830192505050505050509192919290803590602001906401000000008111156105b357600080fd5b8201836020820111156105c557600080fd5b803590602001918460018302840111640100000000831117156105e757600080fd5b91908080601f016020809104026020016040519081016040528093929190818152602001838380828437600081840152601f19601f820116905080830192505050505050509192919290505050610b72565b005b610643610c93565b6040518082815260200191505060405180910390f35b6106856004803603602081101561066f57600080fd5b8101908080359060200190929190505050610c99565b604051808060200180602001806020018760038111156106a157fe5b60ff168152602001806020018060200186810386528c818151815260200191508051906020019080838360005b838110156106e95780820151818401526020810190506106ce565b50505050905090810190601f1680156107165780820380516001836020036101000a031916815260200191505b5086810385528b818151815260200191508051906020019080838360005b8381101561074f578082015181840152602081019050610734565b50505050905090810190601f16801561077c5780820380516001836020036101000a031916815260200191505b5086810384528a818151815260200191508051906020019080838360005b838110156107b557808201518184015260208101905061079a565b50505050905090810190601f1680156107e25780820380516001836020036101000a031916815260200191505b50868103835288818151815260200191508051906020019080838360005b8381101561081b578082015181840152602081019050610800565b50505050905090810190601f1680156108485780820380516001836020036101000a031916815260200191505b50868103825287818151815260200191508051906020019080838360005b83811015610881578082015181840152602081019050610866565b50505050905090810190601f1680156108ae5780820380516001836020036101000a031916815260200191505b509b50505050505050505050505060405180910390f35b600460009054906101000a900473ffffffffffffffffffffffffffffffffffffffff1673ffffffffffffffffffffffffffffffffffffffff163373ffffffffffffffffffffffffffffffffffffffff161461091f57600080fd5b600160066000828254019250508190555060405180606001604052808481526020018373ffffffffffffffffffffffffffffffffffffffff168152602001828152506007600060065481526020019081526020016000206000820151816000019080519060200190610992929190610fda565b5060208201518160010160006101000a81548173ffffffffffffffffffffffffffffffffffffffff021916908373ffffffffffffffffffffffffffffffffffffffff16021790555060408201518160020190805190602001906109f6929190610fda565b50905050505050565b600460009054906101000a900473ffffffffffffffffffffffffffffffffffffffff1673ffffffffffffffffffffffffffffffffffffffff163373ffffffffffffffffffffffffffffffffffffffff1614610a5957600080fd5b8060039080519060200190610a6f92919061105a565b5050565b6060600460009054906101000a900473ffffffffffffffffffffffffffffffffffffffff1673ffffffffffffffffffffffffffffffffffffffff163373ffffffffffffffffffffffffffffffffffffffff1614610acf57600080fd5b60038054600181600116156101000203166002900480601f016020809104026020016040519081016040528092919081815260200182805460018160011615610100020316600290048015610b655780601f10610b3a57610100808354040283529160200191610b65565b820191906000526020600020905b815481529060010190602001808311610b4857829003601f168201915b5050505050905080905090565b600160008082825401925050819055506040518060c00160405280878152602001868152602001858152602001846003811115610bab57fe5b81526020018381526020018281525060016000805481526020019081526020016000206000820151816000019080519060200190610bea929190610fda565b506020820151816001019080519060200190610c07929190610fda565b506040820151816002019080519060200190610c24929190610fda565b5060608201518160030160006101000a81548160ff02191690836003811115610c4957fe5b02179055506080820151816004019080519060200190610c6a929190610fda565b5060a0820151816005019080519060200190610c87929190610fda565b50905050505050505050565b60005481565b6001602052806000526040600020600091509050806000018054600181600116156101000203166002900480601f016020809104026020016040519081016040528092919081815260200182805460018160011615610100020316600290048015610d455780601f10610d1a57610100808354040283529160200191610d45565b820191906000526020600020905b815481529060010190602001808311610d2857829003601f168201915b505050505090806001018054600181600116156101000203166002900480601f016020809104026020016040519081016040528092919081815260200182805460018160011615610100020316600290048015610de35780601f10610db857610100808354040283529160200191610de3565b820191906000526020600020905b815481529060010190602001808311610dc657829003601f168201915b505050505090806002018054600181600116156101000203166002900480601f016020809104026020016040519081016040528092919081815260200182805460018160011615610100020316600290048015610e815780601f10610e5657610100808354040283529160200191610e81565b820191906000526020600020905b815481529060010190602001808311610e6457829003601f168201915b5050505050908060030160009054906101000a900460ff1690806004018054600181600116156101000203166002900480601f016020809104026020016040519081016040528092919081815260200182805460018160011615610100020316600290048015610f325780601f10610f0757610100808354040283529160200191610f32565b820191906000526020600020905b815481529060010190602001808311610f1557829003601f168201915b505050505090806005018054600181600116156101000203166002900480601f016020809104026020016040519081016040528092919081815260200182805460018160011615610100020316600290048015610fd05780601f10610fa557610100808354040283529160200191610fd0565b820191906000526020600020905b815481529060010190602001808311610fb357829003601f168201915b5050505050905086565b828054600181600116156101000203166002900490600052602060002090601f016020900481019282601f1061101b57805160ff1916838001178555611049565b82800160010185558215611049579182015b8281111561104857825182559160200191906001019061102d565b5b50905061105691906110da565b5090565b828054600181600116156101000203166002900490600052602060002090601f016020900481019282601f1061109b57805160ff19168380011785556110c9565b828001600101855582156110c9579182015b828111156110c85782518255916020019190600101906110ad565b5b5090506110d691906110da565b5090565b6110fc91905b808211156110f85760008160009055506001016110e0565b5090565b9056fea165627a7a7230582081888f22ab7d4f0cbf7d5bf246177b9c7032dfbe75e26f2b7a455a284346d2670029",
  "source": "pragma solidity ^0.5.0;\n\nimport \"./CaseReg.sol\";\nimport \"./MasterPass.sol\";\n\n\ncontract CrtPolice is CaseReg,MasterPass {\n    \n    \n    \n     address owner;\n    string password;  //creating a major password\n    \n    modifier onlyMe{  //modifier named as only me\n        require(msg.sender == owner);\n        _;\n    }\n    constructor() public {\n        owner=msg.sender;    //declaring ower as message sender\n    }\n    \n    \n    \n    \n    \n    \n    uint PSNo=0 ; //each station adding it will increase\n    struct PoSt{\n        string name;\n        address StatAddr;\n        string Password;\n    }\n    \n    mapping(uint=>PoSt) policemap;\n    \n    function NewPoSt(string memory _name,address _StatAddr,string memory _Password) public onlyMe{\n        PSNo +=1;\n        policemap[PSNo] = PoSt(_name,_StatAddr,_Password);\n        \n        \n    }\n    \n}",
  "sourcePath": "/home/jothish/MyProject/Blockchain/contracts/CreatPolice.sol",
  "compiler": {
    "name": "solc",
    "version": "0.5.8+commit.23d335f2.Emscripten.clang"
  },
  "schemaVersion": "3.0.11",
  "updatedAt": "2019-07-28T09:42:40.981Z",
  "devdoc": {
    "methods": {}
  },
  "userdoc": {
    "methods": {}
  }
}