{
  "contractName": "CrtPolice",
  "abi": [
    {
      "constant": true,
      "inputs": [
        {
          "name": "",
          "type": "uint256"
        }
      ],
      "name": "policemap",
      "outputs": [
        {
          "name": "name",
          "type": "string"
        },
        {
          "name": "StatAddr",
          "type": "address"
        },
        {
          "name": "Password",
          "type": "string"
        }
      ],
      "payable": false,
      "stateMutability": "view",
      "type": "function"
    },
    {
      "constant": true,
      "inputs": [],
      "name": "getPg",
      "outputs": [
        {
          "name": "_Pgno",
          "type": "uint256"
        }
      ],
      "payable": false,
      "stateMutability": "view",
      "type": "function"
    },
    {
      "constant": false,
      "inputs": [
        {
          "name": "_Prathy",
          "type": "string"
        },
        {
          "name": "_Vaadi",
          "type": "string"
        },
        {
          "name": "_Tittle",
          "type": "string"
        },
        {
          "name": "_Casetyp",
          "type": "uint8"
        },
        {
          "name": "_WriteUp",
          "type": "string"
        }
      ],
      "name": "AddPetition",
      "outputs": [],
      "payable": false,
      "stateMutability": "nonpayable",
      "type": "function"
    },
    {
      "constant": false,
      "inputs": [
        {
          "name": "_password",
          "type": "string"
        }
      ],
      "name": "SetMP",
      "outputs": [],
      "payable": false,
      "stateMutability": "nonpayable",
      "type": "function"
    },
    {
      "constant": true,
      "inputs": [],
      "name": "GetMP",
      "outputs": [
        {
          "name": "_password",
          "type": "string"
        }
      ],
      "payable": false,
      "stateMutability": "view",
      "type": "function"
    },
    {
      "constant": true,
      "inputs": [],
      "name": "Pgno",
      "outputs": [
        {
          "name": "",
          "type": "uint256"
        }
      ],
      "payable": false,
      "stateMutability": "view",
      "type": "function"
    },
    {
      "constant": true,
      "inputs": [
        {
          "name": "",
          "type": "uint256"
        }
      ],
      "name": "MPetition",
      "outputs": [
        {
          "name": "Prathy",
          "type": "string"
        },
        {
          "name": "Vaadi",
          "type": "string"
        },
        {
          "name": "Tittle",
          "type": "string"
        },
        {
          "name": "Casetype",
          "type": "uint8"
        },
        {
          "name": "WriteUp",
          "type": "string"
        }
      ],
      "payable": false,
      "stateMutability": "view",
      "type": "function"
    },
    {
      "inputs": [],
      "payable": false,
      "stateMutability": "nonpayable",
      "type": "constructor"
    },
    {
      "constant": false,
      "inputs": [
        {
          "name": "_name",
          "type": "string"
        },
        {
          "name": "_StatAddr",
          "type": "address"
        },
        {
          "name": "_Password",
          "type": "string"
        }
      ],
      "name": "NewPoSt",
      "outputs": [],
      "payable": false,
      "stateMutability": "nonpayable",
      "type": "function"
    }
  ],
  "bytecode": "0x608060405260008055600060065534801561001957600080fd5b5033600260006101000a81548173ffffffffffffffffffffffffffffffffffffffff021916908373ffffffffffffffffffffffffffffffffffffffff16021790555033600460006101000a81548173ffffffffffffffffffffffffffffffffffffffff021916908373ffffffffffffffffffffffffffffffffffffffff160217905550611277806100ab6000396000f3fe608060405234801561001057600080fd5b50600436106100885760003560e01c80631fd46a7b1161005b5780631fd46a7b146105f05780635b354a59146106ab578063e46e450b1461072e578063ff234f081461074c57610088565b80630732a7f61461008d578063074c6637146101d357806309637e9814610345578063168664ee14610363575b600080fd5b6100b9600480360360208110156100a357600080fd5b810190808035906020019092919050505061094c565b60405180806020018473ffffffffffffffffffffffffffffffffffffffff1673ffffffffffffffffffffffffffffffffffffffff16815260200180602001838103835286818151815260200191508051906020019080838360005b8381101561012f578082015181840152602081019050610114565b50505050905090810190601f16801561015c5780820380516001836020036101000a031916815260200191505b50838103825284818151815260200191508051906020019080838360005b8381101561019557808201518184015260208101905061017a565b50505050905090810190601f1680156101c25780820380516001836020036101000a031916815260200191505b509550505050505060405180910390f35b610343600480360360608110156101e957600080fd5b810190808035906020019064010000000081111561020657600080fd5b82018360208201111561021857600080fd5b8035906020019184600183028401116401000000008311171561023a57600080fd5b91908080601f016020809104026020016040519081016040528093929190818152602001838380828437600081840152601f19601f820116905080830192505050505050509192919290803573ffffffffffffffffffffffffffffffffffffffff169060200190929190803590602001906401000000008111156102bd57600080fd5b8201836020820111156102cf57600080fd5b803590602001918460018302840111640100000000831117156102f157600080fd5b91908080601f016020809104026020016040519081016040528093929190818152602001838380828437600081840152601f19601f820116905080830192505050505050509192919290505050610ac6565b005b61034d610c00565b6040518082815260200191505060405180910390f35b6105ee600480360360a081101561037957600080fd5b810190808035906020019064010000000081111561039657600080fd5b8201836020820111156103a857600080fd5b803590602001918460018302840111640100000000831117156103ca57600080fd5b91908080601f016020809104026020016040519081016040528093929190818152602001838380828437600081840152601f19601f8201169050808301925050505050505091929192908035906020019064010000000081111561042d57600080fd5b82018360208201111561043f57600080fd5b8035906020019184600183028401116401000000008311171561046157600080fd5b91908080601f016020809104026020016040519081016040528093929190818152602001838380828437600081840152601f19601f820116905080830192505050505050509192919290803590602001906401000000008111156104c457600080fd5b8201836020820111156104d657600080fd5b803590602001918460018302840111640100000000831117156104f857600080fd5b91908080601f016020809104026020016040519081016040528093929190818152602001838380828437600081840152601f19601f820116905080830192505050505050509192919290803560ff1690602001909291908035906020019064010000000081111561056857600080fd5b82018360208201111561057a57600080fd5b8035906020019184600183028401116401000000008311171561059c57600080fd5b91908080601f016020809104026020016040519081016040528093929190818152602001838380828437600081840152601f19601f820116905080830192505050505050509192919290505050610c0c565b005b6106a96004803603602081101561060657600080fd5b810190808035906020019064010000000081111561062357600080fd5b82018360208201111561063557600080fd5b8035906020019184600183028401116401000000008311171561065757600080fd5b91908080601f016020809104026020016040519081016040528093929190818152602001838380828437600081840152601f19601f820116905080830192505050505050509192919290505050610d0a565b005b6106b3610d7e565b6040518080602001828103825283818151815260200191508051906020019080838360005b838110156106f35780820151818401526020810190506106d8565b50505050905090810190601f1680156107205780820380516001836020036101000a031916815260200191505b509250505060405180910390f35b610736610e7d565b6040518082815260200191505060405180910390f35b6107786004803603602081101561076257600080fd5b8101908080359060200190929190505050610e83565b6040518080602001806020018060200186600381111561079457fe5b60ff1681526020018060200185810385528a818151815260200191508051906020019080838360005b838110156107d85780820151818401526020810190506107bd565b50505050905090810190601f1680156108055780820380516001836020036101000a031916815260200191505b50858103845289818151815260200191508051906020019080838360005b8381101561083e578082015181840152602081019050610823565b50505050905090810190601f16801561086b5780820380516001836020036101000a031916815260200191505b50858103835288818151815260200191508051906020019080838360005b838110156108a4578082015181840152602081019050610889565b50505050905090810190601f1680156108d15780820380516001836020036101000a031916815260200191505b50858103825286818151815260200191508051906020019080838360005b8381101561090a5780820151818401526020810190506108ef565b50505050905090810190601f1680156109375780820380516001836020036101000a031916815260200191505b50995050505050505050505060405180910390f35b6007602052806000526040600020600091509050806000018054600181600116156101000203166002900480601f0160208091040260200160405190810160405280929190818152602001828054600181600116156101000203166002900480156109f85780601f106109cd576101008083540402835291602001916109f8565b820191906000526020600020905b8154815290600101906020018083116109db57829003601f168201915b5050505050908060010160009054906101000a900473ffffffffffffffffffffffffffffffffffffffff1690806002018054600181600116156101000203166002900480601f016020809104026020016040519081016040528092919081815260200182805460018160011615610100020316600290048015610abc5780601f10610a9157610100808354040283529160200191610abc565b820191906000526020600020905b815481529060010190602001808311610a9f57829003601f168201915b5050505050905083565b600460009054906101000a900473ffffffffffffffffffffffffffffffffffffffff1673ffffffffffffffffffffffffffffffffffffffff163373ffffffffffffffffffffffffffffffffffffffff1614610b2057600080fd5b600160066000828254019250508190555060405180606001604052808481526020018373ffffffffffffffffffffffffffffffffffffffff168152602001828152506007600060065481526020019081526020016000206000820151816000019080519060200190610b93929190611126565b5060208201518160010160006101000a81548173ffffffffffffffffffffffffffffffffffffffff021916908373ffffffffffffffffffffffffffffffffffffffff1602179055506040820151816002019080519060200190610bf7929190611126565b50905050505050565b60008054905080905090565b60008081548092919060010191905055506040518060a00160405280868152602001858152602001848152602001836003811115610c4657fe5b81526020018281525060016000805481526020019081526020016000206000820151816000019080519060200190610c7f929190611126565b506020820151816001019080519060200190610c9c929190611126565b506040820151816002019080519060200190610cb9929190611126565b5060608201518160030160006101000a81548160ff02191690836003811115610cde57fe5b02179055506080820151816004019080519060200190610cff929190611126565b509050505050505050565b600460009054906101000a900473ffffffffffffffffffffffffffffffffffffffff1673ffffffffffffffffffffffffffffffffffffffff163373ffffffffffffffffffffffffffffffffffffffff1614610d6457600080fd5b8060039080519060200190610d7a9291906111a6565b5050565b6060600460009054906101000a900473ffffffffffffffffffffffffffffffffffffffff1673ffffffffffffffffffffffffffffffffffffffff163373ffffffffffffffffffffffffffffffffffffffff1614610dda57600080fd5b60038054600181600116156101000203166002900480601f016020809104026020016040519081016040528092919081815260200182805460018160011615610100020316600290048015610e705780601f10610e4557610100808354040283529160200191610e70565b820191906000526020600020905b815481529060010190602001808311610e5357829003601f168201915b5050505050905080905090565b60005481565b6001602052806000526040600020600091509050806000018054600181600116156101000203166002900480601f016020809104026020016040519081016040528092919081815260200182805460018160011615610100020316600290048015610f2f5780601f10610f0457610100808354040283529160200191610f2f565b820191906000526020600020905b815481529060010190602001808311610f1257829003601f168201915b505050505090806001018054600181600116156101000203166002900480601f016020809104026020016040519081016040528092919081815260200182805460018160011615610100020316600290048015610fcd5780601f10610fa257610100808354040283529160200191610fcd565b820191906000526020600020905b815481529060010190602001808311610fb057829003601f168201915b505050505090806002018054600181600116156101000203166002900480601f01602080910402602001604051908101604052809291908181526020018280546001816001161561010002031660029004801561106b5780601f106110405761010080835404028352916020019161106b565b820191906000526020600020905b81548152906001019060200180831161104e57829003601f168201915b5050505050908060030160009054906101000a900460ff1690806004018054600181600116156101000203166002900480601f01602080910402602001604051908101604052809291908181526020018280546001816001161561010002031660029004801561111c5780601f106110f15761010080835404028352916020019161111c565b820191906000526020600020905b8154815290600101906020018083116110ff57829003601f168201915b5050505050905085565b828054600181600116156101000203166002900490600052602060002090601f016020900481019282601f1061116757805160ff1916838001178555611195565b82800160010185558215611195579182015b82811115611194578251825591602001919060010190611179565b5b5090506111a29190611226565b5090565b828054600181600116156101000203166002900490600052602060002090601f016020900481019282601f106111e757805160ff1916838001178555611215565b82800160010185558215611215579182015b828111156112145782518255916020019190600101906111f9565b5b5090506112229190611226565b5090565b61124891905b8082111561124457600081600090555060010161122c565b5090565b9056fea165627a7a7230582082f5bba6fbe992f44a025dfba8d75105ce6a51ae291fb86ad87ad986b877b7b10029",
  "source": "pragma solidity ^0.5.0;\n\nimport \"./CaseReg.sol\";\nimport \"./MasterPass.sol\";\n\n\ncontract CrtPolice is CaseReg,MasterPass {\n    \n    \n    \n     address owner;\n    string password;  //creating a major password\n    \n    modifier onlyMe{  //modifier named as only me\n        require(msg.sender == owner);\n        _;\n    }\n    constructor() public {\n        owner=msg.sender;    //declaring ower as message sender\n    }\n    \n    \n    \n    \n    \n    \n    uint PSNo=0 ; //each station adding it will increase\n    struct PoSt{\n        string name;\n        address StatAddr;\n        string Password;\n    }\n    \n    mapping(uint=>PoSt) public policemap;\n    \n    function NewPoSt(string memory _name,address _StatAddr,string memory _Password) public onlyMe{\n        PSNo +=1;\n        policemap[PSNo] = PoSt(_name,_StatAddr,_Password);\n        \n        \n    }\n    \n    \n}",
  "sourcePath": "/home/jothish/MyProject/Blockchain/contracts/CreatPolice.sol",
  "compiler": {
    "name": "solc",
    "version": "0.5.8+commit.23d335f2.Emscripten.clang"
  },
  "schemaVersion": "3.0.11",
  "updatedAt": "2019-07-29T18:55:17.700Z",
  "devdoc": {
    "methods": {}
  },
  "userdoc": {
    "methods": {}
  }
}