{
  "contractName": "CrtPolice",
  "abi": [
    {
      "inputs": [],
      "payable": false,
      "stateMutability": "nonpayable",
      "type": "constructor"
    },
    {
      "constant": false,
      "inputs": [
        {
          "name": "_name",
          "type": "string"
        },
        {
          "name": "_StatAddr",
          "type": "address"
        },
        {
          "name": "_Password",
          "type": "string"
        }
      ],
      "name": "NewPoSt",
      "outputs": [],
      "payable": false,
      "stateMutability": "nonpayable",
      "type": "function"
    }
  ],
  "bytecode": "0x6080604052600060025534801561001557600080fd5b50336000806101000a81548173ffffffffffffffffffffffffffffffffffffffff021916908373ffffffffffffffffffffffffffffffffffffffff1602179055506103d2806100656000396000f3fe608060405260043610610041576000357c0100000000000000000000000000000000000000000000000000000000900463ffffffff168063074c663714610046575b600080fd5b34801561005257600080fd5b506101c36004803603606081101561006957600080fd5b810190808035906020019064010000000081111561008657600080fd5b82018360208201111561009857600080fd5b803590602001918460018302840111640100000000831117156100ba57600080fd5b91908080601f016020809104026020016040519081016040528093929190818152602001838380828437600081840152601f19601f820116905080830192505050505050509192919290803573ffffffffffffffffffffffffffffffffffffffff1690602001909291908035906020019064010000000081111561013d57600080fd5b82018360208201111561014f57600080fd5b8035906020019184600183028401116401000000008311171561017157600080fd5b91908080601f016020809104026020016040519081016040528093929190818152602001838380828437600081840152601f19601f8201169050808301925050505050505091929192905050506101c5565b005b6000809054906101000a900473ffffffffffffffffffffffffffffffffffffffff1673ffffffffffffffffffffffffffffffffffffffff163373ffffffffffffffffffffffffffffffffffffffff1614151561022057600080fd5b60016002600082825401925050819055506060604051908101604052808481526020018373ffffffffffffffffffffffffffffffffffffffff168152602001828152506003600060025481526020019081526020016000206000820151816000019080519060200190610294929190610301565b5060208201518160010160006101000a81548173ffffffffffffffffffffffffffffffffffffffff021916908373ffffffffffffffffffffffffffffffffffffffff16021790555060408201518160020190805190602001906102f8929190610301565b50905050505050565b828054600181600116156101000203166002900490600052602060002090601f016020900481019282601f1061034257805160ff1916838001178555610370565b82800160010185558215610370579182015b8281111561036f578251825591602001919060010190610354565b5b50905061037d9190610381565b5090565b6103a391905b8082111561039f576000816000905550600101610387565b5090565b9056fea165627a7a72305820041341d36923919f64f920bfe76332411f46961c39376b5a73148520408961fd0029",
  "source": "pragma solidity ^0.5.0;\n\n\ncontract CrtPolice {\n    \n    \n    \n     address owner;\n    string password;  //creating a major password\n    \n    modifier onlyMe{  //modifier named as only me\n        require(msg.sender == owner);\n        _;\n    }\n    constructor() public {\n        owner=msg.sender;    //declaring ower as message sender\n    }\n    \n    \n    \n    \n    \n    \n    uint PSNo=0 ; //each station adding it will increase\n    struct PoSt{\n        string name;\n        address StatAddr;\n        string Password;\n    }\n    \n    mapping(uint=>PoSt) policemap;\n    \n    function NewPoSt(string memory _name,address _StatAddr,string memory _Password) public onlyMe{\n        PSNo +=1;\n        policemap[PSNo] = PoSt(_name,_StatAddr,_Password);\n        \n        \n    }\n    \n}",
  "sourcePath": "/home/jothish/MyProject/Blockchain/contracts/CreatPolice.sol",
  "compiler": {
    "name": "solc",
    "version": "0.5.0+commit.1d4f565a.Emscripten.clang"
  },
  "schemaVersion": "3.0.11",
  "updatedAt": "2019-07-02T14:31:56.398Z",
  "devdoc": {
    "methods": {}
  },
  "userdoc": {
    "methods": {}
  }
}