{
  "contractName": "MasterPass",
  "abi": [
    {
      "inputs": [],
      "payable": false,
      "stateMutability": "nonpayable",
      "type": "constructor"
    },
    {
      "constant": false,
      "inputs": [
        {
          "name": "_password",
          "type": "string"
        }
      ],
      "name": "SetMP",
      "outputs": [],
      "payable": false,
      "stateMutability": "nonpayable",
      "type": "function"
    },
    {
      "constant": true,
      "inputs": [],
      "name": "GetMP",
      "outputs": [
        {
          "name": "_password",
          "type": "string"
        }
      ],
      "payable": false,
      "stateMutability": "view",
      "type": "function"
    }
  ],
  "bytecode": "0x608060405234801561001057600080fd5b50336000806101000a81548173ffffffffffffffffffffffffffffffffffffffff021916908373ffffffffffffffffffffffffffffffffffffffff1602179055506103bb806100606000396000f3fe608060405234801561001057600080fd5b50600436106100365760003560e01c80631fd46a7b1461003b5780635b354a59146100f6575b600080fd5b6100f46004803603602081101561005157600080fd5b810190808035906020019064010000000081111561006e57600080fd5b82018360208201111561008057600080fd5b803590602001918460018302840111640100000000831117156100a257600080fd5b91908080601f016020809104026020016040519081016040528093929190818152602001838380828437600081840152601f19601f820116905080830192505050505050509192919290505050610179565b005b6100fe6101ec565b6040518080602001828103825283818151815260200191508051906020019080838360005b8381101561013e578082015181840152602081019050610123565b50505050905090810190601f16801561016b5780820380516001836020036101000a031916815260200191505b509250505060405180910390f35b6000809054906101000a900473ffffffffffffffffffffffffffffffffffffffff1673ffffffffffffffffffffffffffffffffffffffff163373ffffffffffffffffffffffffffffffffffffffff16146101d257600080fd5b80600190805190602001906101e89291906102ea565b5050565b60606000809054906101000a900473ffffffffffffffffffffffffffffffffffffffff1673ffffffffffffffffffffffffffffffffffffffff163373ffffffffffffffffffffffffffffffffffffffff161461024757600080fd5b60018054600181600116156101000203166002900480601f0160208091040260200160405190810160405280929190818152602001828054600181600116156101000203166002900480156102dd5780601f106102b2576101008083540402835291602001916102dd565b820191906000526020600020905b8154815290600101906020018083116102c057829003601f168201915b5050505050905080905090565b828054600181600116156101000203166002900490600052602060002090601f016020900481019282601f1061032b57805160ff1916838001178555610359565b82800160010185558215610359579182015b8281111561035857825182559160200191906001019061033d565b5b509050610366919061036a565b5090565b61038c91905b80821115610388576000816000905550600101610370565b5090565b9056fea165627a7a723058200e4baf237ea25f7376279f8276eee5c422d4b1387fb9e3afa735d9aa9e4ca9fd0029",
  "source": "pragma solidity ^0.5.0;\n\n contract MasterPass { //hey\n    \n    address owner;\n    string password;  //creating a major password\n    \n    modifier onlyMe{  //modifier named as only me\n        require(msg.sender == owner);\n        _;\n    }\n    constructor() public {\n        owner=msg.sender;    //declaring ower as message sender\n    }\n    \n    function SetMP(string memory _password) public onlyMe {  //password changing function that only done my me \n        password = _password;\n    }\n    function GetMP() public view onlyMe returns (string memory _password) {\n        return _password = password;\n    }\n        \n    \n}",
  "sourcePath": "/home/jothish/MyProject/Blockchain/contracts/MasterPass.sol",
  "compiler": {
    "name": "solc",
    "version": "0.5.8+commit.23d335f2.Emscripten.clang"
  },
  "schemaVersion": "3.0.11",
  "updatedAt": "2019-07-28T09:42:40.503Z",
  "devdoc": {
    "methods": {}
  },
  "userdoc": {
    "methods": {}
  }
}